{
  "_format": "hh-sol-artifact-1",
  "contractName": "Seeds2TreesNFTs",
  "sourceName": "contracts/Seeds2TreesNFTs.sol",
  "abi": [
    {
      "inputs": [
        {
          "internalType": "string",
          "name": "_imageBaseURI",
          "type": "string"
        }
      ],
      "stateMutability": "nonpayable",
      "type": "constructor"
    },
    {
      "anonymous": false,
      "inputs": [
        {
          "indexed": true,
          "internalType": "address",
          "name": "owner",
          "type": "address"
        },
        {
          "indexed": true,
          "internalType": "address",
          "name": "approved",
          "type": "address"
        },
        {
          "indexed": true,
          "internalType": "uint256",
          "name": "tokenId",
          "type": "uint256"
        }
      ],
      "name": "Approval",
      "type": "event"
    },
    {
      "anonymous": false,
      "inputs": [
        {
          "indexed": true,
          "internalType": "address",
          "name": "owner",
          "type": "address"
        },
        {
          "indexed": true,
          "internalType": "address",
          "name": "operator",
          "type": "address"
        },
        {
          "indexed": false,
          "internalType": "bool",
          "name": "approved",
          "type": "bool"
        }
      ],
      "name": "ApprovalForAll",
      "type": "event"
    },
    {
      "anonymous": false,
      "inputs": [
        {
          "indexed": false,
          "internalType": "address",
          "name": "owner",
          "type": "address"
        },
        {
          "indexed": false,
          "internalType": "uint256",
          "name": "amount",
          "type": "uint256"
        }
      ],
      "name": "FundsWithdrawn",
      "type": "event"
    },
    {
      "anonymous": false,
      "inputs": [
        {
          "indexed": false,
          "internalType": "uint256",
          "name": "newPrice",
          "type": "uint256"
        }
      ],
      "name": "MintPriceUpdated",
      "type": "event"
    },
    {
      "anonymous": false,
      "inputs": [
        {
          "indexed": true,
          "internalType": "address",
          "name": "previousOwner",
          "type": "address"
        },
        {
          "indexed": true,
          "internalType": "address",
          "name": "newOwner",
          "type": "address"
        }
      ],
      "name": "OwnershipTransferred",
      "type": "event"
    },
    {
      "anonymous": false,
      "inputs": [
        {
          "indexed": false,
          "internalType": "uint256",
          "name": "totalDonations",
          "type": "uint256"
        }
      ],
      "name": "TotalDonationsUpdated",
      "type": "event"
    },
    {
      "anonymous": false,
      "inputs": [
        {
          "indexed": true,
          "internalType": "address",
          "name": "from",
          "type": "address"
        },
        {
          "indexed": true,
          "internalType": "address",
          "name": "to",
          "type": "address"
        },
        {
          "indexed": true,
          "internalType": "uint256",
          "name": "tokenId",
          "type": "uint256"
        }
      ],
      "name": "Transfer",
      "type": "event"
    },
    {
      "anonymous": false,
      "inputs": [
        {
          "indexed": false,
          "internalType": "uint256",
          "name": "tokenId",
          "type": "uint256"
        },
        {
          "indexed": false,
          "internalType": "address",
          "name": "owner",
          "type": "address"
        },
        {
          "indexed": false,
          "internalType": "uint256",
          "name": "pricePaid",
          "type": "uint256"
        }
      ],
      "name": "TreeMinted",
      "type": "event"
    },
    {
      "anonymous": false,
      "inputs": [
        {
          "indexed": false,
          "internalType": "uint256",
          "name": "tokenId",
          "type": "uint256"
        },
        {
          "indexed": false,
          "internalType": "string",
          "name": "datePlanted",
          "type": "string"
        },
        {
          "indexed": false,
          "internalType": "string",
          "name": "latitude",
          "type": "string"
        },
        {
          "indexed": false,
          "internalType": "string",
          "name": "longitude",
          "type": "string"
        }
      ],
      "name": "TreePlanted",
      "type": "event"
    },
    {
      "inputs": [
        {
          "internalType": "address",
          "name": "to",
          "type": "address"
        },
        {
          "internalType": "uint256",
          "name": "tokenId",
          "type": "uint256"
        }
      ],
      "name": "approve",
      "outputs": [],
      "stateMutability": "nonpayable",
      "type": "function"
    },
    {
      "inputs": [
        {
          "internalType": "uint256",
          "name": "",
          "type": "uint256"
        }
      ],
      "name": "attributes",
      "outputs": [
        {
          "internalType": "string",
          "name": "datePlanted",
          "type": "string"
        },
        {
          "internalType": "string",
          "name": "latitude",
          "type": "string"
        },
        {
          "internalType": "string",
          "name": "longitude",
          "type": "string"
        }
      ],
      "stateMutability": "view",
      "type": "function"
    },
    {
      "inputs": [
        {
          "internalType": "address",
          "name": "owner",
          "type": "address"
        }
      ],
      "name": "balanceOf",
      "outputs": [
        {
          "internalType": "uint256",
          "name": "",
          "type": "uint256"
        }
      ],
      "stateMutability": "view",
      "type": "function"
    },
    {
      "inputs": [
        {
          "internalType": "uint256",
          "name": "tokenId",
          "type": "uint256"
        }
      ],
      "name": "getApproved",
      "outputs": [
        {
          "internalType": "address",
          "name": "",
          "type": "address"
        }
      ],
      "stateMutability": "view",
      "type": "function"
    },
    {
      "inputs": [
        {
          "internalType": "uint256",
          "name": "tokenId",
          "type": "uint256"
        }
      ],
      "name": "getImageBaseURI",
      "outputs": [
        {
          "internalType": "string",
          "name": "",
          "type": "string"
        }
      ],
      "stateMutability": "view",
      "type": "function"
    },
    {
      "inputs": [],
      "name": "imageBaseURI",
      "outputs": [
        {
          "internalType": "string",
          "name": "",
          "type": "string"
        }
      ],
      "stateMutability": "view",
      "type": "function"
    },
    {
      "inputs": [
        {
          "internalType": "address",
          "name": "owner",
          "type": "address"
        },
        {
          "internalType": "address",
          "name": "operator",
          "type": "address"
        }
      ],
      "name": "isApprovedForAll",
      "outputs": [
        {
          "internalType": "bool",
          "name": "",
          "type": "bool"
        }
      ],
      "stateMutability": "view",
      "type": "function"
    },
    {
      "inputs": [
        {
          "internalType": "uint256",
          "name": "",
          "type": "uint256"
        }
      ],
      "name": "isPlanted",
      "outputs": [
        {
          "internalType": "bool",
          "name": "",
          "type": "bool"
        }
      ],
      "stateMutability": "view",
      "type": "function"
    },
    {
      "inputs": [],
      "name": "mintNFT",
      "outputs": [],
      "stateMutability": "payable",
      "type": "function"
    },
    {
      "inputs": [],
      "name": "mintPrice",
      "outputs": [
        {
          "internalType": "uint256",
          "name": "",
          "type": "uint256"
        }
      ],
      "stateMutability": "view",
      "type": "function"
    },
    {
      "inputs": [],
      "name": "name",
      "outputs": [
        {
          "internalType": "string",
          "name": "",
          "type": "string"
        }
      ],
      "stateMutability": "view",
      "type": "function"
    },
    {
      "inputs": [],
      "name": "nextTokenId",
      "outputs": [
        {
          "internalType": "uint256",
          "name": "",
          "type": "uint256"
        }
      ],
      "stateMutability": "view",
      "type": "function"
    },
    {
      "inputs": [],
      "name": "owner",
      "outputs": [
        {
          "internalType": "address",
          "name": "",
          "type": "address"
        }
      ],
      "stateMutability": "view",
      "type": "function"
    },
    {
      "inputs": [
        {
          "internalType": "uint256",
          "name": "tokenId",
          "type": "uint256"
        }
      ],
      "name": "ownerOf",
      "outputs": [
        {
          "internalType": "address",
          "name": "",
          "type": "address"
        }
      ],
      "stateMutability": "view",
      "type": "function"
    },
    {
      "inputs": [],
      "name": "renounceOwnership",
      "outputs": [],
      "stateMutability": "nonpayable",
      "type": "function"
    },
    {
      "inputs": [
        {
          "internalType": "address",
          "name": "from",
          "type": "address"
        },
        {
          "internalType": "address",
          "name": "to",
          "type": "address"
        },
        {
          "internalType": "uint256",
          "name": "tokenId",
          "type": "uint256"
        }
      ],
      "name": "safeTransferFrom",
      "outputs": [],
      "stateMutability": "nonpayable",
      "type": "function"
    },
    {
      "inputs": [
        {
          "internalType": "address",
          "name": "from",
          "type": "address"
        },
        {
          "internalType": "address",
          "name": "to",
          "type": "address"
        },
        {
          "internalType": "uint256",
          "name": "tokenId",
          "type": "uint256"
        },
        {
          "internalType": "bytes",
          "name": "data",
          "type": "bytes"
        }
      ],
      "name": "safeTransferFrom",
      "outputs": [],
      "stateMutability": "nonpayable",
      "type": "function"
    },
    {
      "inputs": [
        {
          "internalType": "address",
          "name": "operator",
          "type": "address"
        },
        {
          "internalType": "bool",
          "name": "approved",
          "type": "bool"
        }
      ],
      "name": "setApprovalForAll",
      "outputs": [],
      "stateMutability": "nonpayable",
      "type": "function"
    },
    {
      "inputs": [
        {
          "internalType": "uint256",
          "name": "newPrice",
          "type": "uint256"
        }
      ],
      "name": "setMintPrice",
      "outputs": [],
      "stateMutability": "nonpayable",
      "type": "function"
    },
    {
      "inputs": [
        {
          "internalType": "bytes4",
          "name": "interfaceId",
          "type": "bytes4"
        }
      ],
      "name": "supportsInterface",
      "outputs": [
        {
          "internalType": "bool",
          "name": "",
          "type": "bool"
        }
      ],
      "stateMutability": "view",
      "type": "function"
    },
    {
      "inputs": [],
      "name": "symbol",
      "outputs": [
        {
          "internalType": "string",
          "name": "",
          "type": "string"
        }
      ],
      "stateMutability": "view",
      "type": "function"
    },
    {
      "inputs": [
        {
          "internalType": "uint256",
          "name": "index",
          "type": "uint256"
        }
      ],
      "name": "tokenByIndex",
      "outputs": [
        {
          "internalType": "uint256",
          "name": "",
          "type": "uint256"
        }
      ],
      "stateMutability": "view",
      "type": "function"
    },
    {
      "inputs": [
        {
          "internalType": "address",
          "name": "owner",
          "type": "address"
        },
        {
          "internalType": "uint256",
          "name": "index",
          "type": "uint256"
        }
      ],
      "name": "tokenOfOwnerByIndex",
      "outputs": [
        {
          "internalType": "uint256",
          "name": "",
          "type": "uint256"
        }
      ],
      "stateMutability": "view",
      "type": "function"
    },
    {
      "inputs": [
        {
          "internalType": "uint256",
          "name": "tokenId",
          "type": "uint256"
        }
      ],
      "name": "tokenURI",
      "outputs": [
        {
          "internalType": "string",
          "name": "",
          "type": "string"
        }
      ],
      "stateMutability": "view",
      "type": "function"
    },
    {
      "inputs": [],
      "name": "totalDonations",
      "outputs": [
        {
          "internalType": "uint256",
          "name": "",
          "type": "uint256"
        }
      ],
      "stateMutability": "view",
      "type": "function"
    },
    {
      "inputs": [],
      "name": "totalFundsWithdrawn",
      "outputs": [
        {
          "internalType": "uint256",
          "name": "",
          "type": "uint256"
        }
      ],
      "stateMutability": "view",
      "type": "function"
    },
    {
      "inputs": [],
      "name": "totalSupply",
      "outputs": [
        {
          "internalType": "uint256",
          "name": "",
          "type": "uint256"
        }
      ],
      "stateMutability": "view",
      "type": "function"
    },
    {
      "inputs": [],
      "name": "totalTreesPlanted",
      "outputs": [
        {
          "internalType": "uint256",
          "name": "",
          "type": "uint256"
        }
      ],
      "stateMutability": "view",
      "type": "function"
    },
    {
      "inputs": [
        {
          "internalType": "address",
          "name": "from",
          "type": "address"
        },
        {
          "internalType": "address",
          "name": "to",
          "type": "address"
        },
        {
          "internalType": "uint256",
          "name": "tokenId",
          "type": "uint256"
        }
      ],
      "name": "transferFrom",
      "outputs": [],
      "stateMutability": "nonpayable",
      "type": "function"
    },
    {
      "inputs": [
        {
          "internalType": "address",
          "name": "newOwner",
          "type": "address"
        }
      ],
      "name": "transferOwnership",
      "outputs": [],
      "stateMutability": "nonpayable",
      "type": "function"
    },
    {
      "inputs": [
        {
          "internalType": "uint256",
          "name": "tokenId",
          "type": "uint256"
        },
        {
          "internalType": "string",
          "name": "_datePlanted",
          "type": "string"
        },
        {
          "internalType": "string",
          "name": "_latitude",
          "type": "string"
        },
        {
          "internalType": "string",
          "name": "_longitude",
          "type": "string"
        }
      ],
      "name": "updateTreePlanting",
      "outputs": [],
      "stateMutability": "nonpayable",
      "type": "function"
    },
    {
      "inputs": [],
      "name": "withdrawFunds",
      "outputs": [],
      "stateMutability": "nonpayable",
      "type": "function"
    }
  ],
  "bytecode": "0x60806040526040518060800160405280604381526020016200541e60439139600b90816200002e919062000485565b506611c37937e08000600c556001600e553480156200004c57600080fd5b5060405162005461380380620054618339818101604052810190620000729190620006d0565b6040518060400160405280600b81526020017f53656564733254726565730000000000000000000000000000000000000000008152506040518060400160405280600381526020017f53325400000000000000000000000000000000000000000000000000000000008152508160009081620000ef919062000485565b50806001908162000101919062000485565b50505062000124620001186200013d60201b60201c565b6200014560201b60201c565b80600b908162000135919062000485565b505062000721565b600033905090565b6000600a60009054906101000a900473ffffffffffffffffffffffffffffffffffffffff16905081600a60006101000a81548173ffffffffffffffffffffffffffffffffffffffff021916908373ffffffffffffffffffffffffffffffffffffffff1602179055508173ffffffffffffffffffffffffffffffffffffffff168173ffffffffffffffffffffffffffffffffffffffff167f8be0079c531659141344cd1fd0a4f28419497f9722a3daafe3b4186f6b6457e060405160405180910390a35050565b600081519050919050565b7f4e487b7100000000000000000000000000000000000000000000000000000000600052604160045260246000fd5b7f4e487b7100000000000000000000000000000000000000000000000000000000600052602260045260246000fd5b600060028204905060018216806200028d57607f821691505b602082108103620002a357620002a262000245565b5b50919050565b60008190508160005260206000209050919050565b60006020601f8301049050919050565b600082821b905092915050565b6000600883026200030d7fffffffffffffffffffffffffffffffffffffffffffffffffffffffffffffffff82620002ce565b620003198683620002ce565b95508019841693508086168417925050509392505050565b6000819050919050565b6000819050919050565b600062000366620003606200035a8462000331565b6200033b565b62000331565b9050919050565b6000819050919050565b620003828362000345565b6200039a62000391826200036d565b848454620002db565b825550505050565b600090565b620003b1620003a2565b620003be81848462000377565b505050565b5b81811015620003e657620003da600082620003a7565b600181019050620003c4565b5050565b601f8211156200043557620003ff81620002a9565b6200040a84620002be565b810160208510156200041a578190505b620004326200042985620002be565b830182620003c3565b50505b505050565b600082821c905092915050565b60006200045a600019846008026200043a565b1980831691505092915050565b600062000475838362000447565b9150826002028217905092915050565b62000490826200020b565b67ffffffffffffffff811115620004ac57620004ab62000216565b5b620004b8825462000274565b620004c5828285620003ea565b600060209050601f831160018114620004fd5760008415620004e8578287015190505b620004f4858262000467565b86555062000564565b601f1984166200050d86620002a9565b60005b82811015620005375784890151825560018201915060208501945060208101905062000510565b8683101562000557578489015162000553601f89168262000447565b8355505b6001600288020188555050505b505050505050565b6000604051905090565b600080fd5b600080fd5b600080fd5b600080fd5b6000601f19601f8301169050919050565b620005a6826200058a565b810181811067ffffffffffffffff82111715620005c857620005c762000216565b5b80604052505050565b6000620005dd6200056c565b9050620005eb82826200059b565b919050565b600067ffffffffffffffff8211156200060e576200060d62000216565b5b62000619826200058a565b9050602081019050919050565b60005b838110156200064657808201518184015260208101905062000629565b60008484015250505050565b6000620006696200066384620005f0565b620005d1565b90508281526020810184848401111562000688576200068762000585565b5b6200069584828562000626565b509392505050565b600082601f830112620006b557620006b462000580565b5b8151620006c784826020860162000652565b91505092915050565b600060208284031215620006e957620006e862000576565b5b600082015167ffffffffffffffff8111156200070a57620007096200057b565b5b62000718848285016200069d565b91505092915050565b614ced80620007316000396000f3fe6080604052600436106101e35760003560e01c8063715018a611610102578063c15e104911610095578063e985e9c511610064578063e985e9c5146106eb578063f2fde38b14610728578063f4a0a52814610751578063f85fdd821461077a576101e3565b8063c15e10491461061b578063c87b56dd14610644578063d05dcc6a14610681578063de2ed893146106c0576101e3565b80638da5cb5b116100d15780638da5cb5b1461057357806395d89b411461059e578063a22cb465146105c9578063b88d4fde146105f2576101e3565b8063715018a6146104c957806375794a3c146104e0578063776458391461050b5780638cc424c014610536576101e3565b80632f745c591161017a5780636817c76c116101495780636817c76c1461040b5780636a29150e146104365780636dd4d84c1461046157806370a082311461048c576101e3565b80632f745c591461032b57806342842e0e146103685780634f6ccce7146103915780636352211e146103ce576101e3565b806314f710fe116101b657806314f710fe146102b657806318160ddd146102c057806323b872dd146102eb57806324600fc314610314576101e3565b806301ffc9a7146101e857806306fdde0314610225578063081812fc14610250578063095ea7b31461028d575b600080fd5b3480156101f457600080fd5b5061020f600480360381019061020a9190612e8e565b6107b7565b60405161021c9190612ed6565b60405180910390f35b34801561023157600080fd5b5061023a610831565b6040516102479190612f81565b60405180910390f35b34801561025c57600080fd5b5061027760048036038101906102729190612fd9565b6108c3565b6040516102849190613047565b60405180910390f35b34801561029957600080fd5b506102b460048036038101906102af919061308e565b610909565b005b6102be610a20565b005b3480156102cc57600080fd5b506102d5610bea565b6040516102e291906130dd565b60405180910390f35b3480156102f757600080fd5b50610312600480360381019061030d91906130f8565b610bf7565b005b34801561032057600080fd5b50610329610c57565b005b34801561033757600080fd5b50610352600480360381019061034d919061308e565b610d51565b60405161035f91906130dd565b60405180910390f35b34801561037457600080fd5b5061038f600480360381019061038a91906130f8565b610df6565b005b34801561039d57600080fd5b506103b860048036038101906103b39190612fd9565b610e16565b6040516103c591906130dd565b60405180910390f35b3480156103da57600080fd5b506103f560048036038101906103f09190612fd9565b610e87565b6040516104029190613047565b60405180910390f35b34801561041757600080fd5b50610420610f0d565b60405161042d91906130dd565b60405180910390f35b34801561044257600080fd5b5061044b610f13565b60405161045891906130dd565b60405180910390f35b34801561046d57600080fd5b50610476610f19565b60405161048391906130dd565b60405180910390f35b34801561049857600080fd5b506104b360048036038101906104ae919061314b565b610f1f565b6040516104c091906130dd565b60405180910390f35b3480156104d557600080fd5b506104de610fd6565b005b3480156104ec57600080fd5b506104f5610fea565b60405161050291906130dd565b60405180910390f35b34801561051757600080fd5b50610520610ff4565b60405161052d9190612f81565b60405180910390f35b34801561054257600080fd5b5061055d60048036038101906105589190612fd9565b611082565b60405161056a9190612f81565b60405180910390f35b34801561057f57600080fd5b506105886110b6565b6040516105959190613047565b60405180910390f35b3480156105aa57600080fd5b506105b36110e0565b6040516105c09190612f81565b60405180910390f35b3480156105d557600080fd5b506105f060048036038101906105eb91906131a4565b611172565b005b3480156105fe57600080fd5b5061061960048036038101906106149190613319565b611188565b005b34801561062757600080fd5b50610642600480360381019061063d919061343d565b6111ea565b005b34801561065057600080fd5b5061066b60048036038101906106669190612fd9565b611365565b6040516106789190612f81565b60405180910390f35b34801561068d57600080fd5b506106a860048036038101906106a39190612fd9565b611527565b6040516106b7939291906134f8565b60405180910390f35b3480156106cc57600080fd5b506106d56116e9565b6040516106e291906130dd565b60405180910390f35b3480156106f757600080fd5b50610712600480360381019061070d9190613544565b6116ef565b60405161071f9190612ed6565b60405180910390f35b34801561073457600080fd5b5061074f600480360381019061074a919061314b565b611783565b005b34801561075d57600080fd5b5061077860048036038101906107739190612fd9565b611806565b005b34801561078657600080fd5b506107a1600480360381019061079c9190612fd9565b61184f565b6040516107ae9190612ed6565b60405180910390f35b60007f780e9d63000000000000000000000000000000000000000000000000000000007bffffffffffffffffffffffffffffffffffffffffffffffffffffffff1916827bffffffffffffffffffffffffffffffffffffffffffffffffffffffff1916148061082a57506108298261186f565b5b9050919050565b606060008054610840906135b3565b80601f016020809104026020016040519081016040528092919081815260200182805461086c906135b3565b80156108b95780601f1061088e576101008083540402835291602001916108b9565b820191906000526020600020905b81548152906001019060200180831161089c57829003601f168201915b5050505050905090565b60006108ce82611951565b6004600083815260200190815260200160002060009054906101000a900473ffffffffffffffffffffffffffffffffffffffff169050919050565b600061091482610e87565b90508073ffffffffffffffffffffffffffffffffffffffff168373ffffffffffffffffffffffffffffffffffffffff1603610984576040517f08c379a000000000000000000000000000000000000000000000000000000000815260040161097b90613656565b60405180910390fd5b8073ffffffffffffffffffffffffffffffffffffffff166109a361199c565b73ffffffffffffffffffffffffffffffffffffffff1614806109d257506109d1816109cc61199c565b6116ef565b5b610a11576040517f08c379a0000000000000000000000000000000000000000000000000000000008152600401610a08906136e8565b60405180910390fd5b610a1b83836119a4565b505050565b600c54341015610a65576040517f08c379a0000000000000000000000000000000000000000000000000000000008152600401610a5c90613754565b60405180910390fd5b6000600e549050610a763382611a5d565b604051806060016040528060405180602001604052806000815250815260200160405180602001604052806000815250815260200160405180602001604052806000815250815250601160008381526020019081526020016000206000820151816000019081610ae69190613920565b506020820151816001019081610afc9190613920565b506040820151816002019081610b129190613920565b5090505060006012600083815260200190815260200160002060006101000a81548160ff02191690831515021790555034600d6000828254610b549190613a21565b925050819055507fdc6e73d4b36e22ab95945bd8833a5af96c950eb29d8d75c4aecffc987637aaab600d54604051610b8c91906130dd565b60405180910390a17f542ca4709f486f651b359e94f494861c5943a33cb30b384e12aedf335e2feec2813334604051610bc793929190613a55565b60405180910390a1600e6000815480929190610be290613a8c565b919050555050565b6000600880549050905090565b610c08610c0261199c565b82611a7b565b610c47576040517f08c379a0000000000000000000000000000000000000000000000000000000008152600401610c3e90613b46565b60405180910390fd5b610c52838383611b10565b505050565b610c5f611e09565b600047905060008111610ca7576040517f08c379a0000000000000000000000000000000000000000000000000000000008152600401610c9e90613bb2565b60405180910390fd5b8060106000828254610cb99190613a21565b925050819055507feaff4b37086828766ad3268786972c0cd24259d4c87a80f9d3963a3c3d999b0d610ce96110b6565b82604051610cf8929190613bd2565b60405180910390a1610d086110b6565b73ffffffffffffffffffffffffffffffffffffffff166108fc829081150290604051600060405180830381858888f19350505050158015610d4d573d6000803e3d6000fd5b5050565b6000610d5c83610f1f565b8210610d9d576040517f08c379a0000000000000000000000000000000000000000000000000000000008152600401610d9490613c6d565b60405180910390fd5b600660008473ffffffffffffffffffffffffffffffffffffffff1673ffffffffffffffffffffffffffffffffffffffff168152602001908152602001600020600083815260200190815260200160002054905092915050565b610e1183838360405180602001604052806000815250611188565b505050565b6000610e20610bea565b8210610e61576040517f08c379a0000000000000000000000000000000000000000000000000000000008152600401610e5890613cff565b60405180910390fd5b60088281548110610e7557610e74613d1f565b5b90600052602060002001549050919050565b600080610e9383611e87565b9050600073ffffffffffffffffffffffffffffffffffffffff168173ffffffffffffffffffffffffffffffffffffffff1603610f04576040517f08c379a0000000000000000000000000000000000000000000000000000000008152600401610efb90613d9a565b60405180910390fd5b80915050919050565b600c5481565b60105481565b600f5481565b60008073ffffffffffffffffffffffffffffffffffffffff168273ffffffffffffffffffffffffffffffffffffffff1603610f8f576040517f08c379a0000000000000000000000000000000000000000000000000000000008152600401610f8690613e2c565b60405180910390fd5b600360008373ffffffffffffffffffffffffffffffffffffffff1673ffffffffffffffffffffffffffffffffffffffff168152602001908152602001600020549050919050565b610fde611e09565b610fe86000611ec4565b565b6000600e54905090565b600b8054611001906135b3565b80601f016020809104026020016040519081016040528092919081815260200182805461102d906135b3565b801561107a5780601f1061104f5761010080835404028352916020019161107a565b820191906000526020600020905b81548152906001019060200180831161105d57829003601f168201915b505050505081565b6060600b61108f83611f8a565b6040516020016110a0929190613f57565b6040516020818303038152906040529050919050565b6000600a60009054906101000a900473ffffffffffffffffffffffffffffffffffffffff16905090565b6060600180546110ef906135b3565b80601f016020809104026020016040519081016040528092919081815260200182805461111b906135b3565b80156111685780601f1061113d57610100808354040283529160200191611168565b820191906000526020600020905b81548152906001019060200180831161114b57829003601f168201915b5050505050905090565b61118461117d61199c565b8383612058565b5050565b61119961119361199c565b83611a7b565b6111d8576040517f08c379a00000000000000000000000000000000000000000000000000000000081526004016111cf90613b46565b60405180910390fd5b6111e4848484846121c4565b50505050565b6111f2611e09565b600073ffffffffffffffffffffffffffffffffffffffff1661121385610e87565b73ffffffffffffffffffffffffffffffffffffffff1603611269576040517f08c379a000000000000000000000000000000000000000000000000000000000815260040161126090613fd2565b60405180910390fd5b6040518060600160405280848152602001838152602001828152506011600086815260200190815260200160002060008201518160000190816112ac9190613920565b5060208201518160010190816112c29190613920565b5060408201518160020190816112d89190613920565b5090505060016012600086815260200190815260200160002060006101000a81548160ff0219169083151502179055506001600f600082825461131b9190613a21565b925050819055507f657b7bbf1c4d4c6c5d41c6a778cfa25dc8c1fa0e44b17cc1eb0b5ddba0093887848484846040516113579493929190613ff2565b60405180910390a150505050565b6060600073ffffffffffffffffffffffffffffffffffffffff1661138883610e87565b73ffffffffffffffffffffffffffffffffffffffff16036113de576040517f08c379a00000000000000000000000000000000000000000000000000000000081526004016113d590613fd2565b60405180910390fd5b60006012600084815260200190815260200160002060009054906101000a900460ff16611440576040518060400160405280600581526020017f66616c7365000000000000000000000000000000000000000000000000000000815250611477565b6040518060400160405280600481526020017f74727565000000000000000000000000000000000000000000000000000000008152505b905060006114fc61148785611f8a565b61149086611082565b6011600088815260200190815260200160002060000160116000898152602001908152602001600020600101601160008a8152602001908152602001600020600201876040516020016114e89695949392919061449a565b604051602081830303815290604052612220565b90508060405160200161150f91906145e3565b60405160208183030381529060405292505050919050565b601160205280600052604060002060009150905080600001805461154a906135b3565b80601f0160208091040260200160405190810160405280929190818152602001828054611576906135b3565b80156115c35780601f10611598576101008083540402835291602001916115c3565b820191906000526020600020905b8154815290600101906020018083116115a657829003601f168201915b5050505050908060010180546115d8906135b3565b80601f0160208091040260200160405190810160405280929190818152602001828054611604906135b3565b80156116515780601f1061162657610100808354040283529160200191611651565b820191906000526020600020905b81548152906001019060200180831161163457829003601f168201915b505050505090806002018054611666906135b3565b80601f0160208091040260200160405190810160405280929190818152602001828054611692906135b3565b80156116df5780601f106116b4576101008083540402835291602001916116df565b820191906000526020600020905b8154815290600101906020018083116116c257829003601f168201915b5050505050905083565b600d5481565b6000600560008473ffffffffffffffffffffffffffffffffffffffff1673ffffffffffffffffffffffffffffffffffffffff16815260200190815260200160002060008373ffffffffffffffffffffffffffffffffffffffff1673ffffffffffffffffffffffffffffffffffffffff16815260200190815260200160002060009054906101000a900460ff16905092915050565b61178b611e09565b600073ffffffffffffffffffffffffffffffffffffffff168173ffffffffffffffffffffffffffffffffffffffff16036117fa576040517f08c379a00000000000000000000000000000000000000000000000000000000081526004016117f190614677565b60405180910390fd5b61180381611ec4565b50565b61180e611e09565b80600c819055507f525b762709cc2a983aec5ccdfd807a061f993c91090b5bcd7da92ca254976aaa8160405161184491906130dd565b60405180910390a150565b60126020528060005260406000206000915054906101000a900460ff1681565b60007f80ac58cd000000000000000000000000000000000000000000000000000000007bffffffffffffffffffffffffffffffffffffffffffffffffffffffff1916827bffffffffffffffffffffffffffffffffffffffffffffffffffffffff1916148061193a57507f5b5e139f000000000000000000000000000000000000000000000000000000007bffffffffffffffffffffffffffffffffffffffffffffffffffffffff1916827bffffffffffffffffffffffffffffffffffffffffffffffffffffffff1916145b8061194a575061194982612392565b5b9050919050565b61195a816123fc565b611999576040517f08c379a000000000000000000000000000000000000000000000000000000000815260040161199090613d9a565b60405180910390fd5b50565b600033905090565b816004600083815260200190815260200160002060006101000a81548173ffffffffffffffffffffffffffffffffffffffff021916908373ffffffffffffffffffffffffffffffffffffffff160217905550808273ffffffffffffffffffffffffffffffffffffffff16611a1783610e87565b73ffffffffffffffffffffffffffffffffffffffff167f8c5be1e5ebec7d5bd14f71427d1e84f3dd0314c0f7b2291e5b200ac8c7c3b92560405160405180910390a45050565b611a7782826040518060200160405280600081525061243d565b5050565b600080611a8783610e87565b90508073ffffffffffffffffffffffffffffffffffffffff168473ffffffffffffffffffffffffffffffffffffffff161480611ac95750611ac881856116ef565b5b80611b0757508373ffffffffffffffffffffffffffffffffffffffff16611aef846108c3565b73ffffffffffffffffffffffffffffffffffffffff16145b91505092915050565b8273ffffffffffffffffffffffffffffffffffffffff16611b3082610e87565b73ffffffffffffffffffffffffffffffffffffffff1614611b86576040517f08c379a0000000000000000000000000000000000000000000000000000000008152600401611b7d90614709565b60405180910390fd5b600073ffffffffffffffffffffffffffffffffffffffff168273ffffffffffffffffffffffffffffffffffffffff1603611bf5576040517f08c379a0000000000000000000000000000000000000000000000000000000008152600401611bec9061479b565b60405180910390fd5b611c028383836001612498565b8273ffffffffffffffffffffffffffffffffffffffff16611c2282610e87565b73ffffffffffffffffffffffffffffffffffffffff1614611c78576040517f08c379a0000000000000000000000000000000000000000000000000000000008152600401611c6f90614709565b60405180910390fd5b6004600082815260200190815260200160002060006101000a81549073ffffffffffffffffffffffffffffffffffffffff02191690556001600360008573ffffffffffffffffffffffffffffffffffffffff1673ffffffffffffffffffffffffffffffffffffffff168152602001908152602001600020600082825403925050819055506001600360008473ffffffffffffffffffffffffffffffffffffffff1673ffffffffffffffffffffffffffffffffffffffff16815260200190815260200160002060008282540192505081905550816002600083815260200190815260200160002060006101000a81548173ffffffffffffffffffffffffffffffffffffffff021916908373ffffffffffffffffffffffffffffffffffffffff160217905550808273ffffffffffffffffffffffffffffffffffffffff168473ffffffffffffffffffffffffffffffffffffffff167fddf252ad1be2c89b69c2b068fc378daa952ba7f163c4a11628f55a4df523b3ef60405160405180910390a4611e0483838360016125f6565b505050565b611e1161199c565b73ffffffffffffffffffffffffffffffffffffffff16611e2f6110b6565b73ffffffffffffffffffffffffffffffffffffffff1614611e85576040517f08c379a0000000000000000000000000000000000000000000000000000000008152600401611e7c90614807565b60405180910390fd5b565b60006002600083815260200190815260200160002060009054906101000a900473ffffffffffffffffffffffffffffffffffffffff169050919050565b6000600a60009054906101000a900473ffffffffffffffffffffffffffffffffffffffff16905081600a60006101000a81548173ffffffffffffffffffffffffffffffffffffffff021916908373ffffffffffffffffffffffffffffffffffffffff1602179055508173ffffffffffffffffffffffffffffffffffffffff168173ffffffffffffffffffffffffffffffffffffffff167f8be0079c531659141344cd1fd0a4f28419497f9722a3daafe3b4186f6b6457e060405160405180910390a35050565b606060006001611f99846125fc565b01905060008167ffffffffffffffff811115611fb857611fb76131ee565b5b6040519080825280601f01601f191660200182016040528015611fea5781602001600182028036833780820191505090505b509050600082602001820190505b60011561204d578080600190039150507f3031323334353637383961626364656600000000000000000000000000000000600a86061a8153600a858161204157612040614827565b5b04945060008503611ff8575b819350505050919050565b8173ffffffffffffffffffffffffffffffffffffffff168373ffffffffffffffffffffffffffffffffffffffff16036120c6576040517f08c379a00000000000000000000000000000000000000000000000000000000081526004016120bd906148a2565b60405180910390fd5b80600560008573ffffffffffffffffffffffffffffffffffffffff1673ffffffffffffffffffffffffffffffffffffffff16815260200190815260200160002060008473ffffffffffffffffffffffffffffffffffffffff1673ffffffffffffffffffffffffffffffffffffffff16815260200190815260200160002060006101000a81548160ff0219169083151502179055508173ffffffffffffffffffffffffffffffffffffffff168373ffffffffffffffffffffffffffffffffffffffff167f17307eab39ab6107e8899845ad3d59bd9653f200f220920489ca2b5937696c31836040516121b79190612ed6565b60405180910390a3505050565b6121cf848484611b10565b6121db8484848461274f565b61221a576040517f08c379a000000000000000000000000000000000000000000000000000000000815260040161221190614934565b60405180910390fd5b50505050565b606060008251036122425760405180602001604052806000815250905061238d565b6000604051806060016040528060408152602001614c7860409139905060006003600285516122719190613a21565b61227b9190614954565b60046122879190614985565b67ffffffffffffffff8111156122a05761229f6131ee565b5b6040519080825280601f01601f1916602001820160405280156122d25781602001600182028036833780820191505090505b50905060018201602082018586518701602081018051600082525b82841015612348576003840193508351603f8160121c168701518653600186019550603f81600c1c168701518653600186019550603f8160061c168701518653600186019550603f81168701518653600186019550506122ed565b80825260038a510660018114612365576002811461237857612380565b603d6001870353603d6002870353612380565b603d60018703535b5050505050505080925050505b919050565b60007f01ffc9a7000000000000000000000000000000000000000000000000000000007bffffffffffffffffffffffffffffffffffffffffffffffffffffffff1916827bffffffffffffffffffffffffffffffffffffffffffffffffffffffff1916149050919050565b60008073ffffffffffffffffffffffffffffffffffffffff1661241e83611e87565b73ffffffffffffffffffffffffffffffffffffffff1614159050919050565b61244783836128d6565b612454600084848461274f565b612493576040517f08c379a000000000000000000000000000000000000000000000000000000000815260040161248a90614934565b60405180910390fd5b505050565b6124a484848484612af3565b60018111156124e8576040517f08c379a00000000000000000000000000000000000000000000000000000000081526004016124df90614a39565b60405180910390fd5b6000829050600073ffffffffffffffffffffffffffffffffffffffff168573ffffffffffffffffffffffffffffffffffffffff160361252f5761252a81612af9565b61256e565b8373ffffffffffffffffffffffffffffffffffffffff168573ffffffffffffffffffffffffffffffffffffffff161461256d5761256c8582612b42565b5b5b600073ffffffffffffffffffffffffffffffffffffffff168473ffffffffffffffffffffffffffffffffffffffff16036125b0576125ab81612caf565b6125ef565b8473ffffffffffffffffffffffffffffffffffffffff168473ffffffffffffffffffffffffffffffffffffffff16146125ee576125ed8482612d80565b5b5b5050505050565b50505050565b600080600090507a184f03e93ff9f4daa797ed6e38ed64bf6a1f010000000000000000831061265a577a184f03e93ff9f4daa797ed6e38ed64bf6a1f01000000000000000083816126505761264f614827565b5b0492506040810190505b6d04ee2d6d415b85acef81000000008310612697576d04ee2d6d415b85acef8100000000838161268d5761268c614827565b5b0492506020810190505b662386f26fc1000083106126c657662386f26fc1000083816126bc576126bb614827565b5b0492506010810190505b6305f5e10083106126ef576305f5e10083816126e5576126e4614827565b5b0492506008810190505b612710831061271457612710838161270a57612709614827565b5b0492506004810190505b60648310612737576064838161272d5761272c614827565b5b0492506002810190505b600a8310612746576001810190505b80915050919050565b60006127708473ffffffffffffffffffffffffffffffffffffffff16612dff565b156128c9578373ffffffffffffffffffffffffffffffffffffffff1663150b7a0261279961199c565b8786866040518563ffffffff1660e01b81526004016127bb9493929190614aae565b6020604051808303816000875af19250505080156127f757506040513d601f19601f820116820180604052508101906127f49190614b0f565b60015b612879573d8060008114612827576040519150601f19603f3d011682016040523d82523d6000602084013e61282c565b606091505b506000815103612871576040517f08c379a000000000000000000000000000000000000000000000000000000000815260040161286890614934565b60405180910390fd5b805181602001fd5b63150b7a0260e01b7bffffffffffffffffffffffffffffffffffffffffffffffffffffffff1916817bffffffffffffffffffffffffffffffffffffffffffffffffffffffff1916149150506128ce565b600190505b949350505050565b600073ffffffffffffffffffffffffffffffffffffffff168273ffffffffffffffffffffffffffffffffffffffff1603612945576040517f08c379a000000000000000000000000000000000000000000000000000000000815260040161293c90614b88565b60405180910390fd5b61294e816123fc565b1561298e576040517f08c379a000000000000000000000000000000000000000000000000000000000815260040161298590614bf4565b60405180910390fd5b61299c600083836001612498565b6129a5816123fc565b156129e5576040517f08c379a00000000000000000000000000000000000000000000000000000000081526004016129dc90614bf4565b60405180910390fd5b6001600360008473ffffffffffffffffffffffffffffffffffffffff1673ffffffffffffffffffffffffffffffffffffffff16815260200190815260200160002060008282540192505081905550816002600083815260200190815260200160002060006101000a81548173ffffffffffffffffffffffffffffffffffffffff021916908373ffffffffffffffffffffffffffffffffffffffff160217905550808273ffffffffffffffffffffffffffffffffffffffff16600073ffffffffffffffffffffffffffffffffffffffff167fddf252ad1be2c89b69c2b068fc378daa952ba7f163c4a11628f55a4df523b3ef60405160405180910390a4612aef6000838360016125f6565b5050565b50505050565b6008805490506009600083815260200190815260200160002081905550600881908060018154018082558091505060019003906000526020600020016000909190919091505550565b60006001612b4f84610f1f565b612b599190614c14565b9050600060076000848152602001908152602001600020549050818114612c3e576000600660008673ffffffffffffffffffffffffffffffffffffffff1673ffffffffffffffffffffffffffffffffffffffff168152602001908152602001600020600084815260200190815260200160002054905080600660008773ffffffffffffffffffffffffffffffffffffffff1673ffffffffffffffffffffffffffffffffffffffff168152602001908152602001600020600084815260200190815260200160002081905550816007600083815260200190815260200160002081905550505b6007600084815260200190815260200160002060009055600660008573ffffffffffffffffffffffffffffffffffffffff1673ffffffffffffffffffffffffffffffffffffffff16815260200190815260200160002060008381526020019081526020016000206000905550505050565b60006001600880549050612cc39190614c14565b9050600060096000848152602001908152602001600020549050600060088381548110612cf357612cf2613d1f565b5b906000526020600020015490508060088381548110612d1557612d14613d1f565b5b906000526020600020018190555081600960008381526020019081526020016000208190555060096000858152602001908152602001600020600090556008805480612d6457612d63614c48565b5b6001900381819060005260206000200160009055905550505050565b6000612d8b83610f1f565b905081600660008573ffffffffffffffffffffffffffffffffffffffff1673ffffffffffffffffffffffffffffffffffffffff168152602001908152602001600020600083815260200190815260200160002081905550806007600084815260200190815260200160002081905550505050565b6000808273ffffffffffffffffffffffffffffffffffffffff163b119050919050565b6000604051905090565b600080fd5b600080fd5b60007fffffffff0000000000000000000000000000000000000000000000000000000082169050919050565b612e6b81612e36565b8114612e7657600080fd5b50565b600081359050612e8881612e62565b92915050565b600060208284031215612ea457612ea3612e2c565b5b6000612eb284828501612e79565b91505092915050565b60008115159050919050565b612ed081612ebb565b82525050565b6000602082019050612eeb6000830184612ec7565b92915050565b600081519050919050565b600082825260208201905092915050565b60005b83811015612f2b578082015181840152602081019050612f10565b60008484015250505050565b6000601f19601f8301169050919050565b6000612f5382612ef1565b612f5d8185612efc565b9350612f6d818560208601612f0d565b612f7681612f37565b840191505092915050565b60006020820190508181036000830152612f9b8184612f48565b905092915050565b6000819050919050565b612fb681612fa3565b8114612fc157600080fd5b50565b600081359050612fd381612fad565b92915050565b600060208284031215612fef57612fee612e2c565b5b6000612ffd84828501612fc4565b91505092915050565b600073ffffffffffffffffffffffffffffffffffffffff82169050919050565b600061303182613006565b9050919050565b61304181613026565b82525050565b600060208201905061305c6000830184613038565b92915050565b61306b81613026565b811461307657600080fd5b50565b60008135905061308881613062565b92915050565b600080604083850312156130a5576130a4612e2c565b5b60006130b385828601613079565b92505060206130c485828601612fc4565b9150509250929050565b6130d781612fa3565b82525050565b60006020820190506130f260008301846130ce565b92915050565b60008060006060848603121561311157613110612e2c565b5b600061311f86828701613079565b935050602061313086828701613079565b925050604061314186828701612fc4565b9150509250925092565b60006020828403121561316157613160612e2c565b5b600061316f84828501613079565b91505092915050565b61318181612ebb565b811461318c57600080fd5b50565b60008135905061319e81613178565b92915050565b600080604083850312156131bb576131ba612e2c565b5b60006131c985828601613079565b92505060206131da8582860161318f565b9150509250929050565b600080fd5b600080fd5b7f4e487b7100000000000000000000000000000000000000000000000000000000600052604160045260246000fd5b61322682612f37565b810181811067ffffffffffffffff82111715613245576132446131ee565b5b80604052505050565b6000613258612e22565b9050613264828261321d565b919050565b600067ffffffffffffffff821115613284576132836131ee565b5b61328d82612f37565b9050602081019050919050565b82818337600083830152505050565b60006132bc6132b784613269565b61324e565b9050828152602081018484840111156132d8576132d76131e9565b5b6132e384828561329a565b509392505050565b600082601f830112613300576132ff6131e4565b5b81356133108482602086016132a9565b91505092915050565b6000806000806080858703121561333357613332612e2c565b5b600061334187828801613079565b945050602061335287828801613079565b935050604061336387828801612fc4565b925050606085013567ffffffffffffffff81111561338457613383612e31565b5b613390878288016132eb565b91505092959194509250565b600067ffffffffffffffff8211156133b7576133b66131ee565b5b6133c082612f37565b9050602081019050919050565b60006133e06133db8461339c565b61324e565b9050828152602081018484840111156133fc576133fb6131e9565b5b61340784828561329a565b509392505050565b600082601f830112613424576134236131e4565b5b81356134348482602086016133cd565b91505092915050565b6000806000806080858703121561345757613456612e2c565b5b600061346587828801612fc4565b945050602085013567ffffffffffffffff81111561348657613485612e31565b5b6134928782880161340f565b935050604085013567ffffffffffffffff8111156134b3576134b2612e31565b5b6134bf8782880161340f565b925050606085013567ffffffffffffffff8111156134e0576134df612e31565b5b6134ec8782880161340f565b91505092959194509250565b600060608201905081810360008301526135128186612f48565b905081810360208301526135268185612f48565b9050818103604083015261353a8184612f48565b9050949350505050565b6000806040838503121561355b5761355a612e2c565b5b600061356985828601613079565b925050602061357a85828601613079565b9150509250929050565b7f4e487b7100000000000000000000000000000000000000000000000000000000600052602260045260246000fd5b600060028204905060018216806135cb57607f821691505b6020821081036135de576135dd613584565b5b50919050565b7f4552433732313a20617070726f76616c20746f2063757272656e74206f776e6560008201527f7200000000000000000000000000000000000000000000000000000000000000602082015250565b6000613640602183612efc565b915061364b826135e4565b604082019050919050565b6000602082019050818103600083015261366f81613633565b9050919050565b7f4552433732313a20617070726f76652063616c6c6572206973206e6f7420746f60008201527f6b656e206f776e6572206f7220617070726f76656420666f7220616c6c000000602082015250565b60006136d2603d83612efc565b91506136dd82613676565b604082019050919050565b60006020820190508181036000830152613701816136c5565b9050919050565b7f73656e6420656e6f756768206d696e7420707269636500000000000000000000600082015250565b600061373e601683612efc565b915061374982613708565b602082019050919050565b6000602082019050818103600083015261376d81613731565b9050919050565b60008190508160005260206000209050919050565b60006020601f8301049050919050565b600082821b905092915050565b6000600883026137d67fffffffffffffffffffffffffffffffffffffffffffffffffffffffffffffffff82613799565b6137e08683613799565b95508019841693508086168417925050509392505050565b6000819050919050565b600061381d61381861381384612fa3565b6137f8565b612fa3565b9050919050565b6000819050919050565b61383783613802565b61384b61384382613824565b8484546137a6565b825550505050565b600090565b613860613853565b61386b81848461382e565b505050565b5b8181101561388f57613884600082613858565b600181019050613871565b5050565b601f8211156138d4576138a581613774565b6138ae84613789565b810160208510156138bd578190505b6138d16138c985613789565b830182613870565b50505b505050565b600082821c905092915050565b60006138f7600019846008026138d9565b1980831691505092915050565b600061391083836138e6565b9150826002028217905092915050565b61392982612ef1565b67ffffffffffffffff811115613942576139416131ee565b5b61394c82546135b3565b613957828285613893565b600060209050601f83116001811461398a5760008415613978578287015190505b6139828582613904565b8655506139ea565b601f19841661399886613774565b60005b828110156139c05784890151825560018201915060208501945060208101905061399b565b868310156139dd57848901516139d9601f8916826138e6565b8355505b6001600288020188555050505b505050505050565b7f4e487b7100000000000000000000000000000000000000000000000000000000600052601160045260246000fd5b6000613a2c82612fa3565b9150613a3783612fa3565b9250828201905080821115613a4f57613a4e6139f2565b5b92915050565b6000606082019050613a6a60008301866130ce565b613a776020830185613038565b613a8460408301846130ce565b949350505050565b6000613a9782612fa3565b91507fffffffffffffffffffffffffffffffffffffffffffffffffffffffffffffffff8203613ac957613ac86139f2565b5b600182019050919050565b7f4552433732313a2063616c6c6572206973206e6f7420746f6b656e206f776e6560008201527f72206f7220617070726f76656400000000000000000000000000000000000000602082015250565b6000613b30602d83612efc565b9150613b3b82613ad4565b604082019050919050565b60006020820190508181036000830152613b5f81613b23565b9050919050565b7f4e6f2066756e647320746f207769746864726177000000000000000000000000600082015250565b6000613b9c601483612efc565b9150613ba782613b66565b602082019050919050565b60006020820190508181036000830152613bcb81613b8f565b9050919050565b6000604082019050613be76000830185613038565b613bf460208301846130ce565b9392505050565b7f455243373231456e756d657261626c653a206f776e657220696e646578206f7560008201527f74206f6620626f756e6473000000000000000000000000000000000000000000602082015250565b6000613c57602b83612efc565b9150613c6282613bfb565b604082019050919050565b60006020820190508181036000830152613c8681613c4a565b9050919050565b7f455243373231456e756d657261626c653a20676c6f62616c20696e646578206f60008201527f7574206f6620626f756e64730000000000000000000000000000000000000000602082015250565b6000613ce9602c83612efc565b9150613cf482613c8d565b604082019050919050565b60006020820190508181036000830152613d1881613cdc565b9050919050565b7f4e487b7100000000000000000000000000000000000000000000000000000000600052603260045260246000fd5b7f4552433732313a20696e76616c696420746f6b656e2049440000000000000000600082015250565b6000613d84601883612efc565b9150613d8f82613d4e565b602082019050919050565b60006020820190508181036000830152613db381613d77565b9050919050565b7f4552433732313a2061646472657373207a65726f206973206e6f74206120766160008201527f6c6964206f776e65720000000000000000000000000000000000000000000000602082015250565b6000613e16602983612efc565b9150613e2182613dba565b604082019050919050565b60006020820190508181036000830152613e4581613e09565b9050919050565b600081905092915050565b60008154613e64816135b3565b613e6e8186613e4c565b94506001821660008114613e895760018114613e9e57613ed1565b60ff1983168652811515820286019350613ed1565b613ea785613774565b60005b83811015613ec957815481890152600182019150602081019050613eaa565b838801955050505b50505092915050565b6000613ee582612ef1565b613eef8185613e4c565b9350613eff818560208601612f0d565b80840191505092915050565b7f2e706e6700000000000000000000000000000000000000000000000000000000600082015250565b6000613f41600483613e4c565b9150613f4c82613f0b565b600482019050919050565b6000613f638285613e57565b9150613f6f8284613eda565b9150613f7a82613f34565b91508190509392505050565b7f546f6b656e20646f6573206e6f74206578697374000000000000000000000000600082015250565b6000613fbc601483612efc565b9150613fc782613f86565b602082019050919050565b60006020820190508181036000830152613feb81613faf565b9050919050565b600060808201905061400760008301876130ce565b81810360208301526140198186612f48565b9050818103604083015261402d8185612f48565b905081810360608301526140418184612f48565b905095945050505050565b7f7b226e616d65223a202254726565202300000000000000000000000000000000600082015250565b6000614082601083613e4c565b915061408d8261404c565b601082019050919050565b7f222c000000000000000000000000000000000000000000000000000000000000600082015250565b60006140ce600283613e4c565b91506140d982614098565b600282019050919050565b7f226465736372697074696f6e223a202243616c69666f726e696120526564776f60008201527f6f64222c00000000000000000000000000000000000000000000000000000000602082015250565b6000614140602483613e4c565b915061414b826140e4565b602482019050919050565b7f22696d616765223a202200000000000000000000000000000000000000000000600082015250565b600061418c600a83613e4c565b915061419782614156565b600a82019050919050565b7f2261747472696275746573223a205b0000000000000000000000000000000000600082015250565b60006141d8600f83613e4c565b91506141e3826141a2565b600f82019050919050565b7f7b2274726169745f74797065223a202244617465206f6620506c616e74696e6760008201527f222c202276616c7565223a202200000000000000000000000000000000000000602082015250565b600061424a602d83613e4c565b9150614255826141ee565b602d82019050919050565b7f227d2c0000000000000000000000000000000000000000000000000000000000600082015250565b6000614296600383613e4c565b91506142a182614260565b600382019050919050565b7f7b2274726169745f74797065223a20224c61746974756465222c202276616c7560008201527f65223a2022000000000000000000000000000000000000000000000000000000602082015250565b6000614308602583613e4c565b9150614313826142ac565b602582019050919050565b7f7b2274726169745f74797065223a20224c6f6e676974756465222c202276616c60008201527f7565223a20220000000000000000000000000000000000000000000000000000602082015250565b600061437a602683613e4c565b91506143858261431e565b602682019050919050565b7f7b2274726169745f74797065223a2022506c616e746564222c202276616c756560008201527f223a202200000000000000000000000000000000000000000000000000000000602082015250565b60006143ec602483613e4c565b91506143f782614390565b602482019050919050565b7f227d000000000000000000000000000000000000000000000000000000000000600082015250565b6000614438600283613e4c565b915061444382614402565b600282019050919050565b7f5d7d000000000000000000000000000000000000000000000000000000000000600082015250565b6000614484600283613e4c565b915061448f8261444e565b600282019050919050565b60006144a582614075565b91506144b18289613eda565b91506144bc826140c1565b91506144c782614133565b91506144d28261417f565b91506144de8288613eda565b91506144e9826140c1565b91506144f4826141cb565b91506144ff8261423d565b915061450b8287613e57565b915061451682614289565b9150614521826142fb565b915061452d8286613e57565b915061453882614289565b91506145438261436d565b915061454f8285613e57565b915061455a82614289565b9150614565826143df565b91506145718284613eda565b915061457c8261442b565b915061458782614477565b9150819050979650505050505050565b7f646174613a6170706c69636174696f6e2f6a736f6e3b6261736536342c000000600082015250565b60006145cd601d83613e4c565b91506145d882614597565b601d82019050919050565b60006145ee826145c0565b91506145fa8284613eda565b915081905092915050565b7f4f776e61626c653a206e6577206f776e657220697320746865207a65726f206160008201527f6464726573730000000000000000000000000000000000000000000000000000602082015250565b6000614661602683612efc565b915061466c82614605565b604082019050919050565b6000602082019050818103600083015261469081614654565b9050919050565b7f4552433732313a207472616e736665722066726f6d20696e636f72726563742060008201527f6f776e6572000000000000000000000000000000000000000000000000000000602082015250565b60006146f3602583612efc565b91506146fe82614697565b604082019050919050565b60006020820190508181036000830152614722816146e6565b9050919050565b7f4552433732313a207472616e7366657220746f20746865207a65726f2061646460008201527f7265737300000000000000000000000000000000000000000000000000000000602082015250565b6000614785602483612efc565b915061479082614729565b604082019050919050565b600060208201905081810360008301526147b481614778565b9050919050565b7f4f776e61626c653a2063616c6c6572206973206e6f7420746865206f776e6572600082015250565b60006147f1602083612efc565b91506147fc826147bb565b602082019050919050565b60006020820190508181036000830152614820816147e4565b9050919050565b7f4e487b7100000000000000000000000000000000000000000000000000000000600052601260045260246000fd5b7f4552433732313a20617070726f766520746f2063616c6c657200000000000000600082015250565b600061488c601983612efc565b915061489782614856565b602082019050919050565b600060208201905081810360008301526148bb8161487f565b9050919050565b7f4552433732313a207472616e7366657220746f206e6f6e20455243373231526560008201527f63656976657220696d706c656d656e7465720000000000000000000000000000602082015250565b600061491e603283612efc565b9150614929826148c2565b604082019050919050565b6000602082019050818103600083015261494d81614911565b9050919050565b600061495f82612fa3565b915061496a83612fa3565b92508261497a57614979614827565b5b828204905092915050565b600061499082612fa3565b915061499b83612fa3565b92508282026149a981612fa3565b915082820484148315176149c0576149bf6139f2565b5b5092915050565b7f455243373231456e756d657261626c653a20636f6e736563757469766520747260008201527f616e7366657273206e6f7420737570706f727465640000000000000000000000602082015250565b6000614a23603583612efc565b9150614a2e826149c7565b604082019050919050565b60006020820190508181036000830152614a5281614a16565b9050919050565b600081519050919050565b600082825260208201905092915050565b6000614a8082614a59565b614a8a8185614a64565b9350614a9a818560208601612f0d565b614aa381612f37565b840191505092915050565b6000608082019050614ac36000830187613038565b614ad06020830186613038565b614add60408301856130ce565b8181036060830152614aef8184614a75565b905095945050505050565b600081519050614b0981612e62565b92915050565b600060208284031215614b2557614b24612e2c565b5b6000614b3384828501614afa565b91505092915050565b7f4552433732313a206d696e7420746f20746865207a65726f2061646472657373600082015250565b6000614b72602083612efc565b9150614b7d82614b3c565b602082019050919050565b60006020820190508181036000830152614ba181614b65565b9050919050565b7f4552433732313a20746f6b656e20616c7265616479206d696e74656400000000600082015250565b6000614bde601c83612efc565b9150614be982614ba8565b602082019050919050565b60006020820190508181036000830152614c0d81614bd1565b9050919050565b6000614c1f82612fa3565b9150614c2a83612fa3565b9250828203905081811115614c4257614c416139f2565b5b92915050565b7f4e487b7100000000000000000000000000000000000000000000000000000000600052603160045260246000fdfe4142434445464748494a4b4c4d4e4f505152535455565758595a6162636465666768696a6b6c6d6e6f707172737475767778797a303132333435363738392b2fa2646970667358221220c67dfd40cba09ebf36ed9531e5733ceac4d30a266de8db52fa4a69cb6ac4f52964736f6c63430008140033697066733a2f2f6261667962656966626a73666d6c76336d6d78666e796a7662646b736c716769793775766f6d766267676779706c7a62336e716579746e72736d792f",
  "linkReferences": {},
  "deployedLinkReferences": {}
}